{
  "contractName": "HorseFactory",
  "abi": [
    {
      "constant": true,
      "inputs": [
        {
          "name": "",
          "type": "uint256"
        }
      ],
      "name": "horses",
      "outputs": [
        {
          "name": "name",
          "type": "string"
        },
        {
          "name": "speed",
          "type": "uint256"
        },
        {
          "name": "balance",
          "type": "uint256"
        }
      ],
      "payable": false,
      "stateMutability": "view",
      "type": "function"
    },
    {
      "constant": true,
      "inputs": [
        {
          "name": "",
          "type": "uint256"
        }
      ],
      "name": "horseToOwner",
      "outputs": [
        {
          "name": "",
          "type": "address"
        }
      ],
      "payable": false,
      "stateMutability": "view",
      "type": "function"
    },
    {
      "anonymous": false,
      "inputs": [
        {
          "indexed": false,
          "name": "horseId",
          "type": "uint256"
        },
        {
          "indexed": false,
          "name": "name",
          "type": "string"
        },
        {
          "indexed": false,
          "name": "speed",
          "type": "uint256"
        },
        {
          "indexed": false,
          "name": "balance",
          "type": "uint256"
        }
      ],
      "name": "NewHorse",
      "type": "event"
    },
    {
      "constant": false,
      "inputs": [
        {
          "name": "_name",
          "type": "string"
        }
      ],
      "name": "createRandomHorse",
      "outputs": [],
      "payable": false,
      "stateMutability": "nonpayable",
      "type": "function"
    }
  ],
  "bytecode": "0x6080604052606360005534801561001557600080fd5b506107b7806100256000396000f3fe608060405260043610610057576000357c0100000000000000000000000000000000000000000000000000000000900463ffffffff168063735e9c501461005c5780638f8b5cde14610124578063da677fa2146101e6575b600080fd5b34801561006857600080fd5b506101226004803603602081101561007f57600080fd5b810190808035906020019064010000000081111561009c57600080fd5b8201836020820111156100ae57600080fd5b803590602001918460018302840111640100000000831117156100d057600080fd5b91908080601f016020809104026020016040519081016040528093929190818152602001838380828437600081840152601f19601f820116905080830192505050505050509192919290505050610261565b005b34801561013057600080fd5b5061015d6004803603602081101561014757600080fd5b81019080803590602001909291905050506102d9565b6040518080602001848152602001838152602001828103825285818151815260200191508051906020019080838360005b838110156101a957808201518184015260208101905061018e565b50505050905090810190601f1680156101d65780820380516001836020036101000a031916815260200191505b5094505050505060405180910390f35b3480156101f257600080fd5b5061021f6004803603602081101561020957600080fd5b81019080803590602001909291905050506103aa565b604051808273ffffffffffffffffffffffffffffffffffffffff1673ffffffffffffffffffffffffffffffffffffffff16815260200191505060405180910390f35b6000600360003373ffffffffffffffffffffffffffffffffffffffff1673ffffffffffffffffffffffffffffffffffffffff168152602001908152602001600020541415156102af57600080fd5b60006102ba826103dd565b905060006102c783610473565b90506102d4838383610509565b505050565b6001818154811015156102e857fe5b9060005260206000209060030201600091509050806000018054600181600116156101000203166002900480601f0160208091040260200160405190810160405280929190818152602001828054600181600116156101000203166002900480156103945780601f1061036957610100808354040283529160200191610394565b820191906000526020600020905b81548152906001019060200180831161037757829003601f168201915b5050505050908060010154908060020154905083565b60026020528060005260406000206000915054906101000a900473ffffffffffffffffffffffffffffffffffffffff1681565b600080826040516020018082805190602001908083835b60208310151561041957805182526020820191506020810190506020830392506103f4565b6001836020036101000a0380198251168184511680821785525050505050509050019150506040516020818303038152906040528051906020012060019004905060016000548281151561046957fe5b0601915050919050565b600080826040516020018082805190602001908083835b6020831015156104af578051825260208201915060208101905060208303925061048a565b6001836020036101000a038019825116818451168082178552505050505050905001915050604051602081830303815290604052805190602001206001900490506001600054828115156104ff57fe5b0601915050919050565b6000600180606060405190810160405280878152602001868152602001858152509080600181540180825580915050906001820390600052602060002090600302016000909192909190915060008201518160000190805190602001906105719291906106e6565b5060208201518160010155604082015181600201555050039050336002600083815260200190815260200160002060006101000a81548173ffffffffffffffffffffffffffffffffffffffff021916908373ffffffffffffffffffffffffffffffffffffffff160217905550600360003373ffffffffffffffffffffffffffffffffffffffff1673ffffffffffffffffffffffffffffffffffffffff168152602001908152602001600020600081548092919060010191905055507f0c70e95d4e492b995ce94d35fba95c9d7c29da2915bfa0948f9546f9af5315c8818585856040518085815260200180602001848152602001838152602001828103825285818151815260200191508051906020019080838360005b838110156106a3578082015181840152602081019050610688565b50505050905090810190601f1680156106d05780820380516001836020036101000a031916815260200191505b509550505050505060405180910390a150505050565b828054600181600116156101000203166002900490600052602060002090601f016020900481019282601f1061072757805160ff1916838001178555610755565b82800160010185558215610755579182015b82811115610754578251825591602001919060010190610739565b5b5090506107629190610766565b5090565b61078891905b8082111561078457600081600090555060010161076c565b5090565b9056fea165627a7a7230582022188e9a61b8f275e24042da721621441f180879b27782b8da24776697b751cc0029",
  "source": "pragma solidity ^0.5.0;\r\n\r\ncontract HorseFactory{\r\n    \r\n    event NewHorse(uint horseId, string name, uint speed, uint balance);\r\n    \r\n    uint modulus= 99;\r\n    \r\n    struct Horse{\r\n        string name;\r\n        uint speed;\r\n        uint balance;\r\n    }\r\n    \r\n    Horse[] public horses;\r\n    \r\n    mapping (uint => address) public horseToOwner;\r\n    mapping (address => uint) ownerHorseCount;\r\n    \r\n\r\n    function _createHorse(string memory _name, uint _speed, uint _balance) private{\r\n        uint id = horses.push(Horse(_name, _speed, _balance)) - 1;\r\n        horseToOwner[id] = msg.sender;\r\n        ownerHorseCount[msg.sender]++;\r\n        emit NewHorse(id, _name, _speed, _balance);\r\n    }\r\n    \r\n    function _generateRandomSpeed(string memory _str) private view returns (uint){\r\n        uint rand = uint(keccak256(abi.encodePacked(_str)));\r\n        return rand % modulus + 1;\r\n    }\r\n    \r\n    function _generateRandomBalance(string memory _str) private view returns (uint){\r\n        uint rand = uint(keccak256(abi.encodePacked(_str)));\r\n        return rand % modulus + 1;\r\n    }\r\n    \r\n    function createRandomHorse(string memory _name) public {\r\n        require(ownerHorseCount[msg.sender] == 0);\r\n        uint speed = _generateRandomSpeed(_name);\r\n        uint balance = _generateRandomBalance(_name);\r\n        _createHorse(_name, speed, balance);\r\n    }\r\n    \r\n}",
  "sourcePath": "D:/区块链/demo/contracts/horseFactory.sol",
  "compiler": {
    "name": "solc",
    "version": "0.5.0+commit.1d4f565a.Emscripten.clang"
  },
  "schemaVersion": "3.0.0",
  "updatedAt": "2018-12-31T04:39:51.975Z",
  "devdoc": {
    "methods": {}
  },
  "userdoc": {
    "methods": {}
  }
}